{
  "contractName": "Helloworld",
  "abi": [
    {
      "constant": true,
      "inputs": [],
      "name": "getMessage",
      "outputs": [
        {
          "internalType": "string",
          "name": "",
          "type": "string"
        }
      ],
      "payable": false,
      "stateMutability": "view",
      "type": "function",
      "signature": "0xce6d41de"
    },
    {
      "constant": false,
      "inputs": [
        {
          "internalType": "string",
          "name": "_message",
          "type": "string"
        }
      ],
      "name": "setMessage",
      "outputs": [],
      "payable": true,
      "stateMutability": "payable",
      "type": "function",
      "signature": "0x368b8772"
    }
  ],
  "bytecode": "0x60806040526040518060400160405280600c81526020017f48656c6c6f20576f726c642100000000000000000000000000000000000000008152506000908051906020019061004f929190610062565b5034801561005c57600080fd5b50610107565b828054600181600116156101000203166002900490600052602060002090601f016020900481019282601f106100a357805160ff19168380011785556100d1565b828001600101855582156100d1579182015b828111156100d05782518255916020019190600101906100b5565b5b5090506100de91906100e2565b5090565b61010491905b808211156101005760008160009055506001016100e8565b5090565b90565b61032c806101166000396000f3fe608060405260043610610046576000357c010000000000000000000000000000000000000000000000000000000090048063368b87721461004b578063ce6d41de14610106575b600080fd5b6101046004803603602081101561006157600080fd5b810190808035906020019064010000000081111561007e57600080fd5b82018360208201111561009057600080fd5b803590602001918460018302840111640100000000831117156100b257600080fd5b91908080601f016020809104026020016040519081016040528093929190818152602001838380828437600081840152601f19601f820116905080830192505050505050509192919290505050610196565b005b34801561011257600080fd5b5061011b6101b0565b6040518080602001828103825283818151815260200191508051906020019080838360005b8381101561015b578082015181840152602081019050610140565b50505050905090810190601f1680156101885780820380516001836020036101000a031916815260200191505b509250505060405180910390f35b80600090805190602001906101ac929190610252565b5050565b606060008054600181600116156101000203166002900480601f0160208091040260200160405190810160405280929190818152602001828054600181600116156101000203166002900480156102485780601f1061021d57610100808354040283529160200191610248565b820191906000526020600020905b81548152906001019060200180831161022b57829003601f168201915b5050505050905090565b828054600181600116156101000203166002900490600052602060002090601f016020900481019282601f1061029357805160ff19168380011785556102c1565b828001600101855582156102c1579182015b828111156102c05782518255916020019190600101906102a5565b5b5090506102ce91906102d2565b5090565b6102f491905b808211156102f05760008160009055506001016102d8565b5090565b9056fea265627a7a723158208378e9e04a42262aab7c48f746eb1eb17305eb8ecaebb228eb364d0c16a6b01464736f6c634300050c0032",
  "source": "pragma solidity ^0.5.12;\r\n\r\ncontract Helloworld {\r\n  string message = \"Hello World!\";\r\n\r\n  function getMessage() public view returns (string memory) {\r\n    return message;\r\n  }\r\n\r\n  function setMessage(string memory _message) public payable {\r\n    message = _message;\r\n  }\r\n}\r\n",
  "sourcePath": "C:/Users/lfege/Code/eth_Coding_201/contracts/Helloworld.sol",
  "compiler": {
    "name": "solc",
    "version": "0.5.12+commit.7709ece9.Emscripten.clang"
  },
  "schemaVersion": "3.0.2",
  "updatedAt": "2019-12-23T19:58:51.170Z",
  "devdoc": {
    "methods": {}
  },
  "userdoc": {
    "methods": {}
  }
}